:020000040800F2
:1030000000800020C13000089D340008953400087D
:103010008D340008853400087D340008000000006D
:1030200000000000000000000000000075340008EF
:103030006D340008000000006534000829340008E1
:103040005D340008553400084D5A000800000000A7
:103050000000000041340008194A0008C94A00086D
:10306000B971000800000000FD300008E1340008DC
:10307000A534000800000000FD300008D54000081D
:10308000ED410008D934000800000000D1340008E8
:10309000BD710008000000000000000000000000FA
:1030A0000000000000000000000000008D44000847
:1030B000C9340008C1340008AD3400089D68000818
:1030C00009490A4A0A4B9A42BEBF51F8040B42F81A
:1030D000040BF8E70749084A00209142BCBF41F8B9
:1030E000040BFAE700F01CFA1ACA000800000020DE
:1030F00040060020400600206C120020FEE700BFC2
:1031000030B54FF47A60C1B0002100F07FF84FF481
:103110009671012001F016FB204805F04DFF69462D
:103120001F4805F051FF69461E4805F0D3FE1E48B2
:1031300005F042FF4FF47A70002100F067F869460D
:10314000012001F047FC012001F0EEFB4FF47A7101
:10315000012001F0FDFB012001F054FB0146134862
:1031600005F0B8FE0DF17F0504E0012001F05AFBE7
:1031700005F8010F012001F045FB04460028F4D1B9
:1031800020A90B4805F0A6FE802221460DEB020087
:1031900005F027FA012001F0D9FAB8E7E4BE0008EB
:1031A000F4BE0008F8BE000808BF000814BF0008FD
:1031B00038BF0008024B4F21062259601A60704741
:1031C00010E000E010B5012002F0A0FD02F0B4FD17
:1031D00001280446FAD10220092102F0F7FD204619
:1031E00002F018FE02F01CFE01280446FAD100206D
:1031F00002F030FE204602F007FE4FF4807002F02D
:1032000033FEBDE8104003F093B800BF70B48E00E9
:10321000840046EA90756B016201121B43EAD46395
:1032200063EB050380185941CB00C20043EA507399
:10323000104619461E4C1F4DD4E9002380185941F1
:103240002B7810F1FF30DBB203F10102D2B241F171
:10325000FF312A7003BB184A136843F0010313605F
:10326000D4E9002382428B41FADB2B78013BDBB2AD
:103270002B70B3B100BF00BF00BF00BF00BF00BFD5
:1032800000BF00BF00BF00BF00BF00BF00BF00BF46
:1032900000BF00BF70BC704700BF00BF00BF00BFD1
:1032A000DEE7054A136823F001031360E6E700BF79
:1032B000480600204006002010E000E007490B7897
:1032C000DBB25A1CD2B20A7023B9054A136843F024
:1032D00001031360034BD3E900017047400600204F
:1032E00010E000E048060020074A1378013BDBB2FB
:1032F000137023B9054A136823F001031360044BCC
:10330000D3E90001704700BF4006002010E000E054
:1033100048060020014BD3E9000170474806002011
:1033200000B54FF47A7383B003FB00F000230193E0
:1033300004F020FB10A3D3E9002304F0BBFC04F04D
:1033400071FE04F039FB00220D4B04F089FB4FF0B5
:103350007F53002204F084FB04F044FE0190019BA3
:103360002BB1019B013B0193019B002BF9D103B0D1
:103370005DF804FBAFF3008096438B6CE7FBF93FED
:1033800000005440431E00284CD000BF00BF00BFC7
:1033900000BF00BF00BF00BF00BF00BF00BF00BF35
:1033A00000BF00BF00BF00BF00BF00BF00BF00BF25
:1033B00000BF00BF00BF00BF00BF00BF00BF00BF15
:1033C00000BF00BF00BF00BF00BF00BF00BF00BF05
:1033D00000BF00BF00BF00BF00BF00BF00BF00BFF5
:1033E00000BF00BF00BF00BF00BF00BF00BF00BFE5
:1033F00000BF00BF00BF00BF00BF00BF00BF00BFD5
:1034000000BF00BF00BF00BF00BF00BF00BF00BFC4
:1034100000BF00BF00BF00BF00BF00BF00BF13F16F
:10342000FF33B2D2704700BF0449D1E90023013213
:1034300043F10003C1E90023704700BF48060020A4
:10344000002008B500F086FD43F6982000F060F8F3
:10345000FEE700BF08B5FFF7F3FF00BF08B5FFF7B1
:10346000EFFF00BF08B5FFF7EBFF00BF08B5FFF7A0
:10347000E7FF00BF08B5FFF7E3FF00BF08B5FFF7A0
:10348000DFFF00BF08B5FFF7DBFF00BF08B5FFF7A0
:10349000D7FF00BF08B5FFF7D3FF00BF08B5FFF7A0
:1034A000CFFF00BF08B5FFF7CBFF00BF002008B576
:1034B00000F050FD47F2305000F02AF8FEE700BF60
:1034C00008B5FFF7F3FF00BF08B5FFF7EFFF00BF38
:1034D00008B5FFF7EBFF00BF08B5FFF7E7FF00BF38
:1034E00008B5FFF7E3FF00BF08B50121182003F07E
:1034F00071FBBDE8084001211A2003F06BBB00BF3F
:1035000001461A2003F044BC0146182003F040BCD9
:103510000146182000F0A8BD0121182003F05ABB75
:10352000F8B562B603F028FB03F02AFB03F008F8B5
:10353000FFF748FEFFF73EFE00F0C2FF714B00228E
:1035400083F8232000F078FB0221252003F042FBC2
:103550000221212003F03EFB02F014FA01F00EFCE0
:1035600000F0E4FE002800F0C180674C042000F069
:10357000F1FC22684FF4807390686449012205F0E1
:103580003BFD22684FF4807361495068012205F0C9
:1035900033FD032002F04AFFFFF7A6FF5D4B1B78C7
:1035A000012B52D0022B46D1002000F0D3FC46F272
:1035B000A810FFF7ADFF584C23785749002BFBD0DC
:1035C000564A00239646564D0B70207807281FD880
:1035D000D05C202840F28D801EF803007E2800F287
:1035E000888008780EEB0307C0B2461CF6B245F897
:1035F00020700E7005E01EF803607E2E06D83A2873
:1036000004D80133D65C581E202EF4D83B2BDCDDC9
:1036100000231D464148D15C202908BFC554013311
:103620003C2BF8D10020FFF773FFFFF775FF042054
:1036300000F090FC00E0384C00F0F4FE38492078AF
:10364000FFF75EFD00F0F8FAFEE70020324C00F0D4
:1036500081FC46F2A810FFF75BFF237883B94FF493
:10366000FA70FFF75DFE092505E0013DFFF758FE02
:1036700015F0FF0504D023784FF4FA70002BF4D036
:1036800023782549002BCDD0244A0F4696460023A7
:10369000234D0B70217807291DD8D15C20292DD905
:1036A0001EF803107E2929D839780EEB0306C9B21B
:1036B000481CC0B245F82160387005E01EF80300D0
:1036C0007E281CD83A291AD80133D05C591E2028EC
:1036D000F4D83B2BDEDD002318461049D55C202DA5
:1036E00008BFC85401333C2BF8D19BE700F026FEFD
:1036F0003BE701333B2B7FF768AF89E701333B2B77
:10370000C8DDE8E700ED00E0D0040020D40F002081
:10371000D410002050BF00088C0600205006002066
:10372000B40F00208200F8B5B24B1418A4001D1984
:10373000AD681C592C80102900F21381DFE811F0CC
:103740003D0054006B0083009B00B100CF000401DA
:10375000130131016801680168019901B601110086
:103760003D00141803EB8404A5680126D4F808E092
:10377000A768AE7000258EF80350D4F808E03D71BC
:10378000A7688EF80550D4F808E0BD71A7688EF8D8
:103790000750A5684FF0020EA46887F808E00327D9
:1037A0006F72A672944C024403EB82032154D868D2
:1037B000996802F0EDF90020F8BD141803EB8404B9
:1037C000A7680025A668D4F808E03D720127B77203
:1037D000A768A668A4688EF802504FF0030E87F819
:1037E00009E03571E570DDE7141803EB8404A66881
:1037F0000025A768D4F808E035720126BE72A768D4
:103800008EF80260A668A4684FF0030E87F809E0FE
:103810003571E570C6E7141803EB8404A66800252B
:10382000A768D4F808C0D4F808E035720126BE7243
:10383000A768A4688CF802504FF0030C8EF809C0FA
:103840003D71E670AEE7141803EB8404A66800250A
:10385000A768D4F808C0D4F808E035720126BE7213
:10386000A768A4688CF802504FF0030C8EF809C0CA
:103870003E71E57096E7141803EB8404A768D4F84A
:1038800008E00025A668BD70A7688EF80A504FF0C2
:10389000030E86F809E0A668A4683D71F570A5716D
:1038A00080E7141803EB8404D4F808E0A668002528
:1038B000A7688EF80250D4F808E0F570A6683D714C
:1038C000A7688EF80550D4F808E0B571A668A4681A
:1038D000FD7103278EF808507772A57262E71418FD
:1038E00003EB8404E668454DAE4200F05F81141896
:1038F00003EB8404E668424DAE4200F06B8114187D
:1039000003EB8404E6683F4DAE4200F0EF801418EC
:1039100003EB8404E6683C4DAE4200F0FB801418D3
:1039200003EB8404A6680127A568B7720326A7687D
:103930006E72A66800253D71A768F570A668A46838
:103940007D71B571E5712DE7141803EB8404E66809
:103950002B4DAE4200F01381E6682B4DAE4200F0D5
:10396000B2800120F8BD141803EB8404A668012579
:10397000A768D4F808E0F57000263E71A7688EF8B5
:103980000560D4F808E0BE71A768A668A4688EF840
:1039900007504FF0020E87F808E003277772A572F0
:1039A00000E7141803EB8404E668184DAE4200F0FB
:1039B000F580141803EB8404A468032525721418F9
:1039C00003EB8404A5680026A768D4F808E0EE712C
:1039D0000125BD72A7688EF80250A568D4F808E0EA
:1039E000BE71A768A4686E7103258EF80460FE702E
:1039F0006572D7E6940C00208C0F002000000B406D
:103A000000800E4000800A4000000C4000800B4007
:103A1000141803EB8404E668744DAE4200F0B680DF
:103A2000141803EB8404A46803252572141803EB0F
:103A30008404A668A7684FF0010EA56886F807E021
:103A4000A66887F80AE00027AF70A568B7716F71A4
:103A5000A568A4680A290BBF2F7185F804E084F8D3
:103A600003E0E770141803EB8404A468032565726F
:103A700098E6141803EB8404A768D4F808E000253E
:103A8000A668FD71A7688EF80A504FF0010E86F8FF
:103A900002E0A668D4F808E0BD71A768A468757153
:103AA00003268EF80450FD7066727BE6141803EB53
:103AB0008404A6680025A7683571A668A468FD700F
:103AC000B572A5706EE62479023C042C3FF649AF2E
:103AD00001A555F824F000BF713B00083D3B0008EC
:103AE000633900083D3B00083D3B00082579062D61
:103AF00003D02479072C7FF40AAF141803EB840455
:103B0000A56803262E722579A468062D5FD00125AD
:103B1000A57004E725791DB12479012C7FF4FFAE4F
:103B2000141803EB8404A56802262E722579A46874
:103B300005F0FF06002DEAD1A670F0E6141803EB9D
:103B40008404A4680125A570141803EB8404A568F7
:103B50000227A6682F72A5680127B7720326A768F7
:103B60006E72A668A56800243C71F470AC7119E609
:103B7000141803EB8404A4680025A570E4E72579F4
:103B8000EDB2022DDDD9032DF5D0EAE62579EDB2AF
:103B9000022D7FF445AFA468257247E72579EDB281
:103BA000022D7FF406AFA468257208E72579052D5C
:103BB00003D02479062C7FF49AAE141803EB840406
:103BC000A56802262E722579A468052D9FD00025B0
:103BD000A570A4E625791DB12479012C7FF48FAE60
:103BE000141803EB8404A56803269EE700800B40AD
:103BF000084B00EB800203EB82031A69012310B427
:103C000003FA01F4144202D010BCFFF78BBD184632
:103C100010BC7047940C002038B50C4605460121B5
:103C2000C4F3C43301FA03F002F078F929462046C0
:103C3000BDE8384001F0ACBF2DE9F04F87B06C46CD
:103C4000494DDFF840A10FCD0FC495E803000125D1
:103C500084E80300A94654466F4600264FF0030847
:103C600002E00C3401350437204602F041F8052DFE
:103C700068D039682046267284F80A90A67084F8C5
:103C800009802671FFF7C8FF062DEAD1374FDFF80C
:103C9000F880DFF8F8B0DFF8F8A0A7F124094FF0BA
:103CA0004F0C00260EE04FF003030AF80630DEF852
:103CB00010301B0733D40136262E07F114071CD011
:103CC00057F814CC06EB8604A4000BEB040E7546E3
:103CD0004C440FCC0FC523682B60DEF80C3048F83D
:103CE000043FBCF1000FDED14FF010030AF806309C
:103CF0000136262E07F11407E2D11D4B1B789BB12C
:103D00001C4D1D4C0FCD0FC455F8043B44F8043B2B
:103D10000FCD0FC42B68236007B0BDE8F08F0321DF
:103D20003046FFF7FFFCC6E7144D154C0FCD0FC40E
:103D300055F8106944F8046B0FCD0FC4266007B026
:103D4000BDE8F08FBAF83030396823F0C003AAF824
:103D500030302046267284F80A90A67084F80980D4
:103D60002671FFF759FF7CE754BF000890BF000899
:103D7000E0BE0008C4C10008FC0D002064C20008B9
:103D8000240E0020D4110020F80B0020940C0020F9
:103D90008C0F00202DE9F04F6C4B4FF4803283B034
:103DA000C3F880200D2961D8DFE801F00763777F31
:103DB000878F979FA6ADB4BBC2C94CF24F3540F276
:103DC0003F66002201238DE80C00044641F60918E5
:103DD0000121C0F3C43001FA00F002F09FF8002185
:103DE000204602F051F9E168002021F00101E16074
:103DF000034620600246666004F1100CA56004F1E1
:103E0000700E04F1200704F1300604F1600504F19E
:103E100040004FF450614CF803204EF80320F95055
:103E2000082146F80380E950C25004330C2B4FF0B0
:103E300000014FF4506B41F6091A4FF00809E8D120
:103E4000434B9C4208D0E161E167C4F82CB0C4F850
:103E50003CA0C4F86C90E164009A0023236563657C
:103E6000A265E365E368019A1343E36003B0BDE82C
:103E7000F08F364BE02200254FF400444FF48031A0
:103E800083F80F23019583F810231C601960022327
:103E90004FF6FE754F26009397E701230193002309
:103EA0004CF24F351F2600938FE701230193002327
:103EB00042F20F750F26009387E701230193002339
:103EC00042F20F75072600937FE701230193002339
:103ED00042F20F750326009377E7012301931E46F4
:103EE000002342F20F7500936FE70026012300962E
:103EF000019342F20F7568E70026012300960193B3
:103F000041F63F7561E7002601230096019340F6D4
:103F10009F755AE7002601230096019340F2CF7562
:103F200053E7002601230096019340F23F654CE7DA
:103F3000002601230096019340F2E73545E700266D
:103F400001230096019340F21F353EE700E100E0B7
:103F50000080074010B50446054B014605481C701B
:103F6000FFF718FF2146BDE810400348FFF712BFD6
:103F70002004002000800740000008400D4B4FF453
:103F800080320D48F0B4C3F88020C3680B4A0C4956
:103F9000156823F00103C3600F682B680024094EE5
:103FA00023EA07032B600C6031781460F0BCFFF744
:103FB000F1BE00BF00E100E000000840CC06002098
:103FC000B00600202004002010B5431E82B08CB241
:103FD000172B11D8DFE803F0201010331036390CFE
:103FE00012101010101910101010101010101012C4
:103FF000194B1B68002B2BD002B010BD164B1B6851
:10400000002BF9D1154BDC610FE0134B1B68002B23
:10401000F2D1124B5C6108E00F4B1B681BB10190A1
:10402000FFF7ACFF01980D4B9C610D4B1B5C092BFE
:10403000E2D0092102B0BDE81040FFF7D9BD094B1D
:104040005C61F2E7074B1C61EFE7064B9C61ECE714
:10405000024B1C61E9E700BFCC06002000000840CD
:104060008C0F00200080074070B50446081E25DD37
:104070004FF6FE7398421ADC231F032B94BF124B9A
:10408000124B9E6804F0D8F8114904F0DDF905469A
:10409000304604F0CDF80146284604F021F904F03A
:1040A0006FFA01462046BDE87040FFF78DBF2046FD
:1040B000BDE870404FF6FF71FFF786BF2046BDE8B0
:1040C00070400021FFF780BF0080074000000840DB
:1040D00000FF7F47344A354B3549126810B55965A2
:1040E000002A46D04FF6FE719B688B4241D0904724
:1040F0002E4A304B526D1340002B39D02E4B1A688C
:104100002AB12E4A126862B10021196090472C4BE7
:104110001A6832B1294A12681AB12A490968002975
:1041200039D1294B1A682AB1284A126862B1002194
:1041300019609047264B1A6832B1244A12681AB1A6
:104140002449096800292AD1234B1A683AB1234A25
:1041500012686AB122480021016019609047204B23
:104160001A682AB11D4A126812B11E49096869B954
:1041700010BD4FF6FE720D4B99689142B8D14FF6C3
:10418000FD70194A002118601160B1E70021196023
:10419000BDE810401047002119609047C1E7002199
:1041A00019609047D0E700BFB406002000800740A8
:1041B000FCEFFFFFE0E10100940AF042B8060020A6
:1041C000B40AF042080CF042980AF042BC06002003
:1041D000B80AF042880CF0429C0AF042C006002067
:1041E000BC0AF042080DF0428001F0424FF6FE7129
:1041F0003E4A10B5536D23F4805323F003035365F7
:1042000093688B425AD03A4B1968B9B1394B3A4A44
:1042100099420B6812680CBF6FF01F044FF0FF3417
:104220005340364823400B60D0E9002312F1FF329F
:1042300043F1FF33C0E90023134346D02B4A304BF0
:10424000526D1340002B38D02E4B1A682AB12E4ADB
:10425000126862B10021196090472C4B1A6832B184
:10426000294A12681AB12149096E4C0735D4284BE6
:104270001A682AB1274A126862B100211960904772
:10428000254B1A6832B1234A12681AB11749896E50
:10429000480726D4214B1A682AB1214A126862B114
:1042A0000021196090471F4B1A6832B11C4A1268EE
:1042B0001AB10E49C96E49070AD410BD4FF6FD70F8
:1042C000194B002110601960B8E7FFF757FEB5E7FA
:1042D00000211960BDE81040104700211960904787
:1042E000C5E7002119609047D4E700BF00000840EF
:1042F000CC06002000000B40B0060020D0060020B5
:10430000E0E10100940A0043D8060020B40A00430B
:104310009C0A0043C4060020BC0A0043A00A0043D4
:10432000C8060020C00A004380010043024BD86B3E
:1043300000F00D00704700BF00800D4010B5012057
:1043400001F014FD164C01E0013C03D001F024FD06
:104350000128F9D1042001F0FBFB12490B683BB1A5
:10436000114B00E0CBB10A68013B002AFAD19BB1A6
:104370004FF4004001F0FEFB0A490B683BB10A4BC9
:1043800000E05BB10A68013B002AFAD123B1BDE825
:104390001040012001F0E8BB10BD10BD10BD00BFF2
:1043A000A2FA2E00180AB043A1FA2E0038B505462D
:1043B000002004F0D3FE6B680B4ADB03A2FB03234F
:1043C0000A4A9B0C53642B6804461364002004F0D3
:1043D000C5FE074A6421136801FB003001FB140489
:1043E0000020146038BD00BF83DE1B4300800D40F9
:1043F000E806002010B50446084B1A6C586C226081
:1044000003F016FF4FF0605103F06AFF044903F018
:1044100067FF04F0B5F86060002010BD00800D401B
:104420000024744938B5002004F098FE642303FB8F
:1044300000F00F4A0F4B10601C6C586C03F0F8FE34
:104440004FF0605103F04CFF0B49054603F048FF65
:1044500004F096F80246094B09491A60284603F011
:104460003FFF04F08DF8074A074B10601C6038BD11
:10447000E806002000800D4000247449E406002076
:1044800000007A44E0060020EC06002008B501F0A8
:1044900077FB084B1B6823B1074A126D520700D502
:1044A000984701F06DFB044A136D43F00403136554
:1044B00008BD00BFDC06002000800D40704700BF33
:1044C000014B024A1A607047F0060020BD44000804
:1044D000012870B51B4D33D01B4B03281ABF1D4656
:1044E00001200020194B4FF48A7404FB0034802A09
:1044F000A8BF80220023C4F88820601CC4F8843040
:1045000004F064F8AB69990619D4D4F88420D4F87F
:1045100088309A4213DA234605E0D3F88410D3F8A2
:10452000882091420BDAD3F88420511CC3F8841000
:104530001A445278D2B22A60AA699206EDD570BDAB
:104540000020CFE70000034000800340F406002075
:1045500038B5154B4FF48A74054604FB013406E068
:10456000C4F80C31D4F810310133C4F810311021E3
:10457000284601F047FE01280C4B13D0D4F80C213B
:1045800029682244C9B282F88C10D4F80C21013277
:104590001340002BC4F80C21E2DA013B63F07F03E7
:1045A0000133DDE738BD00BFF40600207F00008046
:1045B0002DE9F047012884B080460D46144634D0DA
:1045C000032832D04FF48A720021594804F009F8C8
:1045D000684601F0E5FD1023012180200095ADF82B
:1045E0000A306F4601F09AFC524D012604F0010397
:1045F000C4F38102DB00012AADF806302AD0022A7A
:1046000003D012B104B0BDE8F087ADF80820C4F3C0
:104610000114640108F1FF38ADF80440B8F1030F4C
:10462000F0D8DFE808F07C1B5F744FF48A72002139
:10463000414803F0D6FF684601F0B2FD1023012186
:1046400040200095ADF80A306F4601F067FC3B4D05
:104650000026CBE70623ADF80830D8E720208246B5
:1046600022244FF00D084FF00B0902F0A9FA06289A
:1046700044D0204602F0A4FA06283FD0484606213E
:10468000FFF7B6FA40460621FFF7B2FA00212846A6
:1046900001F0BEFD284601F025FD3946284601F00F
:1046A00035FD00222846032101F0A8FD28460121FE
:1046B00001F082FD01227021284601F089FDB31D21
:1046C000DBB21E4A03F1604303F56143602183F8C6
:1046D000001395421A4B0CBF402280221A6004B08E
:1046E000BDE8F0870020824602F06AFA06284FF003
:1046F00001044FF01C084FF01D09BAD150460321A8
:10470000FFF776FA20460321FFF772FAB6E70B208F
:1047100082460D244FF022084FF02009A5E71D2006
:1047200082461C244FF001084FF000099DE700BFAE
:104730000808002000800340F40600200000034029
:1047400000E100E03022FFF733BF00BF012810B5C1
:10475000044644D0032816D0022826D0042831D09D
:10476000012821D103210020FFF742FA032120462E
:10477000FFF73EFA0021204801F01EFD1F4B80226A
:10478000C3F8802010BD01461D20FFF731FA2146F5
:104790001C20FFF72DFA0021194801F00DFD174BE1
:1047A0004022C3F8802010BD10BD03210B20FFF76D
:1047B0001FFA03210D20FFF71BFA00210E4801F01C
:1047C000FBFCDBE703212020FFF712FA0321222064
:1047D000FFF70EFA0021084801F0EEFCCEE70321B6
:1047E0000020FFF705FA20460321FFF701FA002118
:1047F000034801F0E1FCD2E70080034000E100E063
:104800000000034000F0FD0010F1FF33044A18BF20
:1048100001234FF48A7000FB0320D0F81001704789
:10482000F406002000F0FD0010F1FF331F4918BF0F
:1048300001234FF48A7202FB0312D2F81001802880
:10484000C4BF8020C2F810014FF48A7202FB031229
:10485000D2F81001002826DD10B4D2F80C41D2F8AD
:104860001001844215DAD2F81001D2F80C41001B75
:10487000C0F18000024492F88C00C0B24FF48A72FA
:1048800002FB0313D3F8102110BC013AC3F8102126
:104890007047D2F80C01D2F81041001B024492F884
:1048A0008C00C0B2EAE74FF0FF307047F4060020FA
:1048B00000F0FD0010F1FF331A4918BF01234FF437
:1048C0008A7202FB0312D2F81001002826DDD2F80A
:1048D00010018028C4BF8020C2F810014FF48A70F4
:1048E00000FB0310D0F80C21D0F810319A4209DBFC
:1048F000D0F80C31D0F810219B1A184490F88C0095
:10490000C0B27047D0F81031D0F80C219B1AC3F117
:104910008003184490F88C00C0B270474FF0FF300D
:10492000704700BFF406002000F0FD0010F1FF33D7
:10493000064A18BF01234FF48A7000FB0320D0F809
:104940008420D0F888309A42F9D17047F4060020CC
:104950002DE9F04107464FF47A7404FB01F41B4B38
:1049600007F0FD07002C08BF1C46FEF7A7FC17F157
:10497000FF3718BF01274FF48A7606FB07F6DFF8EA
:1049800050802044002308F80630044600254644A1
:1049900001E033782BB9FEF7BDFCA04271EB0503B3
:1049A000F7DBFEF7A1FC4FF48A7303FB07F718F857
:1049B0000730074AB8442BB10023D355D8F810016B
:1049C000BDE8F0814FF0FF30BDE8F081809698009F
:1049D000F40600200EB470B5A3B027AB53F8045B07
:1049E00080221C460021064602A8019303F0F9FD2F
:1049F0002A46234602A8802104F0F0FB021E03DBB6
:104A000002A93046FFF764FD23B0BDE8704003B053
:104A1000704700BFFFF75CBD284B10B54024C3F8BA
:104A200080402146264801F0DDFB002839D1244C86
:104A30002021204601F0D6FB10B3A3699A061BD4AF
:104A4000204AD2F88410D2F88830994214DA2046ED
:104A5000144605E0D4F88410D4F8883099420BDA73
:104A6000D2F88430591CC2F8841013445B78DBB24E
:104A7000036083699B06EDD52021114801F0BAFB44
:104A800010210F4801F0AEFB38B100210C48FFF7B0
:104A90005FFD10210A4801F0ADFB084B40221A606F
:104AA00010BD00210648FFF753FD2146044801F0E0
:104AB000A1FB044B01221A70B9E700BF00E100E03E
:104AC00000000340F4060020294B802210B540214D
:104AD000C3F88020274801F085FB00283AD1254CF7
:104AE0002021204601F07EFB18B3A3699A061CD44E
:104AF000214AD2F89811D2F89C31994215DA204611
:104B0000144605E0D4F89811D4F89C3199420CDA97
:104B1000D2F89831591CC2F89811134493F8153102
:104B2000DBB2036083699B06ECD52021114801F0BC
:104B300061FB10210F4801F055FB38B101210D48F0
:104B4000FFF706FD10210B4801F054FB084B8022B3
:104B50001A6010BD01210748FFF7FAFC4021054803
:104B600001F048FB044B012283F81421B7E700BF92
:104B700000E100E000800340F4060020204B70B408
:104B80001A68204E7468B089138880B29BB298422C
:104B900008DC737C012B05D070BC1B4B0120C3F8D3
:104BA00048017047184B002501217574C3F8D012D5
:104BB000D3F82011154D81F00401C3F820110AE04B
:104BC00013889BB2591C89B21180E35CDBB22B6065
:104BD00013889B060CD013889BB29842F0DC0A49DC
:104BE0000B4A0123C1F848310020136070BC7047A4
:104BF00013889BB29842F2D101237374EFE700BF90
:104C00003C0A0020480A002000000140C002014088
:104C10000424204238B50C460C4D014695F8C330AB
:104C20002344C02BC8BF95F8C34095F8C300C8BF44
:104C3000C4F1C0042246284403F0C8FC95F8C330F0
:104C40001C44E4B285F8C34038BD00BF740A00209C
:104C500038B52B4C94F8C22094F8C3309A4208D34C
:104C600094F8C130012B04D0264B0120C3F8480131
:104C700038BD244B0122002084F8C100C3F8D021A4
:104C800094F8C0201E49022A2FD091F8C030012B81
:104C900032D01B4A1C4D0DE092F8C230DBB2591CD9
:104CA000C9B282F8C210D35CDBB22B6092F8C2307A
:104CB0009B060ED094F8C21094F8C3301048994265
:104CC000EAD31049114A0123C1F84831002013608A
:104CD00038BD012380F8C03090F8C21090F8C3208E
:104CE0009142EED180F8C130EBE7D3F8002142F0D9
:104CF0000402C3F80021CCE701F00EFBC9E700BFB6
:104D0000740A002000000140C0010140042020423C
:104D1000C029A8BFC02110B50C460A4B0146224647
:104D2000184603F053FCE4B2002280F8C34080F838
:104D3000C2200221BDE8104080F8C01080F8C120D8
:104D4000FFF786BF740A002070B4094A094E002399
:104D5000012400293370C2F8504207DD064D5C1C67
:104D6000C25CE3B28B422A60F9DB337070BC7047DF
:104D700000000140620A002040020140044B002272
:104D8000012183F88D10A3F8862083F88F207047C7
:104D9000A0090020644BF0B51868002830D1634B9F
:104DA000634FC3F83801D3F80C43387014F0FF0494
:104DB00016D0604A604B1668604D1A6813882968DF
:104DC0009BB2C9B2F1541388013001339BB2C1B216
:104DD00003F07F0E8C421380A2F800E0EED83C7006
:104DE0005749524AB1F8863056481C44A4B20123B0
:104DF000A1F886400360C2F81033C2F84831F0BD14
:104E00004A4A00234E48C2F838314F4E90F88E106F
:104E1000337019B380F88E30B0F884309BB2EBB9A0
:104E20000121C2F85013C2F84811D2F83031454C74
:104E300083F004032160C2F83031012380F88D3003
:104E400090F88F20002A56D038493E48D1F83021BA
:104E5000036082F00403C1F83031F0BDB0F8842063
:104E6000374B92B2002A41D03049D1F8302182F03C
:104E70000402C1F8302193F88C4004F0FF02002CAA
:104E80003AD10124C1F850431746304D304C11E05F
:104E9000B3F88870B3F88410BFB289B27F1AEF5D9F
:104EA000013989B2A3F88410276001273A44D2B2AD
:104EB000402A2DD0B0F8841089B209B3B3F88870B5
:104EC000B3F88410BFB289B28F42E1D2B3F8841034
:104ED00089B24F1EBFB2A3F88470B3F88870BFB216
:104EE000C91BC1F18001695C2160DEE70F4B012223
:104EF000C3F84821A1E7F0BD0123C1F84831F0BD56
:104F000087B90A490F4A0123C1F848311360F0BD3F
:104F1000B0F8843032709BB2094A002BF1D182F88C
:104F20008E70EEE73270ECE700272042000001406F
:104F3000610A002024040020300400200003014006
:104F4000A0090020042620425D0A0020200900203C
:104F50004003014038B5184B1B68FBB1174D0022C8
:104F6000174B2A70D3F80C3213F0FF040BD0611EDC
:104F7000C9B2144B013114481944026803F8012BDB
:104F80008B42FAD12C700E4D0124C5F8104201F06D
:104F9000EBFA0E4BC5F848411C6038BD084B0B4876
:104FA000D3F81021012182F00402C3F8102101601E
:104FB000C3F8481138BD00BF042320425C0A00201A
:104FC0000000014020120020000201400422204283
:104FD000F8B52E4B1B68002B45D12D4A2D4917687B
:104FE000D689D1F88C52DFF8B8C015F0FF05B6B2FB
:104FF0008CF8003043D0284A1468228892B2964236
:1050000098BF184628D90120DFF898E004E02288EC
:1050100092B296421DD918462288431C92B2511C66
:1050200089B22180DEF800108542C9B2DBB2B954E2
:10503000EDD88CF80000174A0123402DC2F89032B9
:10504000C2F8483114D0154A137843F001031370A5
:10505000F8BD8CF8000080B223889BB22B441B1A49
:105060009BB22380E7E7FFF789FD0128EBD0F8BD6D
:1050700002F1077202F5493204321360F8BD0123D0
:10508000C1F89032C1F84831DDE700BF0025204269
:10509000480A002000000140340A0020600A002075
:1050A000300A002080020140F0B50378054603F085
:1050B0006000202883B05ED0402831D040B100206D
:1050C000082101F0E3F8C64B0120186003B0F0BDE1
:1050D00003F01F02032AF2D86A78072AEFD000F201
:1050E000D080032A00F0068140F20B81052A00F0EF
:1050F000F581062AE3D1EB78013B062BDFD801A22C
:1051000052F823F0355400086D5300083D53000851
:10511000BF500008BF500008BF500008BF50000833
:105120006B78172B74D0AE2BC9D1AB88042B00F051
:10513000A881052BC3D16B88DBB2002B00F0F18175
:10514000012BBCD1A74BA84A1C4607CA03C40226A0
:1051500000210A20228083F8C30083F8C21083F85C
:10516000C06083F8C110EB888E2B00F00782FFF738
:105170006FFD0120AAE76B78222BA0D801A252F87C
:1051800023F000BFBF500008BF500008BF50000808
:10519000BF500008BF500008BF500008BF500008B3
:1051A000BF500008BF500008BF500008BF500008A3
:1051B000BF500008BF500008BF500008BF50000893
:1051C000BF500008BF500008BF500008BF50000883
:1051D000BF500008BF500008BF500008BF50000873
:1051E000BF500008BF500008BF500008BF50000863
:1051F000BF500008BF500008BF500008BF50000853
:10520000BF50000851520008455200085F52000884
:10521000AB88032B7FF453AF6C88002C7DD0012C1E
:105220007FF44DAF714A724D1378042143F00203AD
:1052300013700020C5F8D04101F028F8684B2046D3
:105240001C6043E76B480721FFF762FD01203DE743
:105250006949634A01230B701846136036E7AB783F
:10526000E8786649624A43EA002301240B8004215E
:10527000C2F8D041002001F009F8594B20461C60CB
:1052800024E70A2A36D032D8082A00F04481092AB5
:105290007FF415AF564D0124C5F8104220465849F9
:1052A000C5F8504200F0F2FFD5F810314F4A83F0B4
:1052B0000403C5F8103113785149234313700220B9
:1052C000C5F89042C5F8D04200F0E0FFC5F81043A1
:1052D0004B490320C5F8504300F0D8FF4FF400318C
:1052E000032000F0D3FF474B04211C70A1E70B2AD9
:1052F0007FF4E5AE082100F0C9FF394B01201860AA
:10530000E4E6002A00F0DA80012A7FF4D8AE384BB8
:105310000124C3F8D0410421ACE7344A344913785E
:10532000012564F3410313702046C1F8D0510421D4
:1053300000F0ACFF2A4B28461D60C7E66888C4B25F
:10534000032C00F04C8140F23881052C00F0538191
:10535000C0F04B81062C00F03981EE2C7FF4AFAE0B
:1053600029481221FFF7D4FC0120AFE61D4B274A44
:105370001C4607CA03C4092600210220227083F8B4
:10538000C36083F8C21083F8C00083F8C110EB88B3
:105390004E2B7FF4ECAE31461D48FFF73BFC072156
:1053A0001C48FFF737FC07211B48FFF733FC314649
:1053B0001A48FFF72FFC07211948FFF72BFC07219C
:1053C0001848FFF727FC31461748FFF723FC072151
:1053D0001648FFF71FFC07211548FFF71BFCC6E620
:1053E00004202042740A002000C30008600A002044
:1053F0000000014028040020630A00201C0900204E
:1054000007001800390A00209CC20008F4C20008F6
:1054100090C200084CC3000844C50008C8C4000876
:10542000BCC4000824C40008D8C30008D4C40008C1
:1054300054C30008834B844A1C46844D178895E862
:10544000070003C402AE07F5804726F8047D022753
:1054500022804FF00A0E30463946002683F8C3E01A
:1054600083F8C26083F8C07083F8C160FFF7D2FB95
:1054700005F10C000621FFF7CDFBFFF7E9FB01204A
:1054800024E6704C724B0FCB84E80F0000231021F0
:10549000022284F8C31084F8C23084F8C02084F853
:1054A000C130EB88402B7FF462AE18216948FFF7CA
:1054B000B1FB18216848FFF7ADFB58E6802B76D08A
:1054C000812B7FF4FCAD002301A802218DF804306C
:1054D0008DF80530FFF71CFC0120F7E55F4B012438
:1054E000C3F8D041042100F0D1FE5D4B1C6000F0F8
:1054F000EFFEC207FBD5002000F0D6FE4306FAD52A
:10550000012000F0EBFE564B01221A60688800F083
:10551000FDFE0020DAE553480921FFF7F9FB0120E1
:10552000D4E5484C504A264607CA03C602270A213A
:10553000328084F8C31084F8C23084F8C07084F8D4
:10554000C130EB888E2B7FF412AE04214748FFF761
:1055500061FB04214648FFF75DFB39464548FFF7EC
:1055600059FB28214448FFF755FB04214348FFF726
:1055700051FB4E214248FFF74DFBF8E504213B4823
:10558000FFF748FB04213A48FFF744FB314639480E
:10559000FFF740FB28213848FFF73CFB0421374840
:1055A000FFF738FB4E213748FFF734FBDFE536487D
:1055B0000221FFF7ADFB012088E5012C2AD023D87A
:1055C00032480421FFF7A4FB01207FE5E988304839
:1055D0001C29A8BF1C21FFF79BFB012076E52D4865
:1055E0000178FFF795FB012070E52B482221FFF79A
:1055F0008FFB01206AE5E98828481429A8BF1421F7
:10560000FFF786FB012061E524481421FFF780FBAA
:1056100001205BE540F20942AB88934209D040F299
:10562000194293420BD11E481421FFF771FB20460B
:105630004CE51C481C21FFF76BFB204646E5204645
:1056400044E500BF740A0020802C0008DCC4000878
:1056500074C500087CC3000878C20008000001403F
:1056600004202042F4C2000800C30008F0C400086F
:10567000F0C20008C2C500084CC50008D4C3000829
:105680006CC40008F4C40008C4C4000884C5000841
:105690000CC30008002C000894C300082CC40008A8
:1056A000E4C30008B0C200084B4A38B5D2F808314C
:1056B0004A4C13F0030322D12370474B484DD3F8D3
:1056C0008C31DBB2102B28BF102353B15A1E2B464E
:1056D000D2B2013243482A44016803F8011B9342C5
:1056E000FAD13D4B0122C3F890213D48FFF7DCFC85
:1056F00000232B606B60AB60EB60207038BD2378BB
:10570000012B1AD0D9D3022B27D1D2F8083103F0BC
:105710000303012B3ED0D2F8083103F00303022B20
:1057200004BF0123C2F8D0312B482F4901230222A4
:10573000C0F848310B60227038BDD2F8083103F050
:105740000303012B29D0D2F8083103F00303022B05
:1057500004D0254B01221A6038BD38BDD2F88C1117
:105760000829A8BF0821002909DD1D4B07311D4864
:1057700019440733026803F8012F8B42FAD11B4BFF
:105780001B78012B1ED0144B0122C3F89021C3F8C3
:105790004821DEE7C2F89031C6E7FFF759FA012841
:1057A00008BF02234FF0000008BF237000F07CFD0B
:1057B0008306CED54FF40021002000F067FD0223C0
:1057C0002370C6E70A4A0B4B92E803000A0C1860E4
:1057D00099809A71D7E700BF00000140380A002085
:1057E000640A00208001014004202042630A002056
:1057F0006C0A00202804002038B5144C2378012BB3
:1058000002D02078C0B238BD00F07AFD18B92070FF
:105810002078C0B238BD0E4D002308202B7000F058
:105820005DFD40F2ED30FDF7ADFD2B78002BE8D1AA
:1058300000F04EFDC0F3C0000028E2D1054A137805
:1058400060F3410313702070E2E700BF390A0020C3
:105850003A0A0020600A00202DE9F843164D44F66C
:1058600020682F46DFF8589000242B780134DB079E
:10587000114E1ED4A9FB04239B0B08FB1343002BE2
:10588000F3D13B789A0703D5FFF7B6FF0128ECD098
:105890000A4B0124C3F890424FF40031C3F8D042C0
:1058A000022000F0F3FC3378204623433370BDE838
:1058B000F8830020BDE8F883600A00200000014062
:1058C0005917B7D170B5114D2B789B0702D5B1F59B
:1058D000805F01D9012070BD0C460646FFF7BCFF72
:1058E0000028F7D10A4B9C815E60188154B158742E
:1058F000FFF744F92B786FF300032B70BDE870407D
:10590000FFF7AABF01225A74F2E700BF600A002025
:10591000480A00202DE9F041164C23789B0702D459
:105920000120BDE8F08117460E460546FFF794FFBB
:105930000028F5D120211048FFF7C4FF0028EFD13F
:10594000DFF83C800D4BA8F80A000122C8F800508F
:10595000A8F80E601A60237860F300032370FFF745
:105960007BFFB8F80A309BB2B3423B60D8DCBDE89D
:10597000F08100BF600A00205CC3000804242042BC
:10598000480A0020F8B5254A254B2649264F274EC0
:10599000274CA2F1020E03F18A050A6004200121BE
:1059A000C7F800E03360256000F0B8FA03200B214F
:1059B00000F064FA012000F085FA00F089FA01286D
:1059C0000446FAD1002000F09DFA204600F074FA57
:1059D000204600F09DFA00F03DFC164800F084FCE3
:1059E0001F2000F07BFC144B1449C3F890410020A9
:1059F000C3F8D04100F04AFC114800F03BFC002005
:105A000000F084FC0F4800F057FC0F4B20210422CB
:105A100083F8021300201A60F8BD00BF520A00206C
:105A2000A0090020340A00203C0A002024040020A1
:105A30003004002005001A00000001400700180093
:105A40001C00E3003100080000E100E0F8B5334B32
:105A50001B689BB9324E3368002B27D1314B1A6833
:105A60005AB13148012231491A600270D1E900234C
:105A7000013243F10003C1E90023F8BD2C4B1B6840
:105A8000002B48D02B4B1B68002B41D02A4B1B68A6
:105A9000002B3AD0294B1B68002BDBD1284BD3F8C5
:105AA00038319B07D6D0FFF775F9D3E7002000F017
:105AB0002DFC234D234B012400271F703846C5F8C9
:105AC00090412149C5F8D04100F0E0FBC5F81042F3
:105AD00020461D49C5F8504200F0D8FBC5F8904259
:105AE00019490220C5F8D04200F0D0FBC5F8104398
:105AF0001549C5F85043032000F0C8FB134A13783A
:105B000067F3410313703460A8E7FFF761FAC1E758
:105B1000FFF7CAFDBAE7FFF71DFAB3E700292042F5
:105B2000082920420C2920423A0A0020400A00207D
:105B30000422204204202042042420420426204241
:105B400000000140390A002007001800600A002008
:105B5000044A00F00C00D36B23F00C031843D0630D
:105B6000704700BF00800D40014B1860704700BFB8
:105B70009007B043014B9864704700BF00800D4010
:105B8000024A1368002BFCD1704700BF180AB043CB
:105B90002DE9F04F0446436889B00193836807906C
:105BA0000293C3680D88006903936369D4F8188071
:105BB000E2690092002D66D04FF0011B4FF0030AFE
:105BC0004FF001090024EA0753D56FEA0B026FEA90
:105BD00009070E7902EA000EA6401340C87846EA8B
:105BE0000E02059204F11002164690403A466FEA02
:105BF0000A0C91F806E0019F0EFA04FE4EEA030338
:105C000002EA070E039F0493029B174003970CEAD6
:105C10000303009F0293059B17404A791843049B96
:105C2000B2400CEA080691F802C013430A7A0CFA53
:105C300004FC069604928E7A4CEA0E0291F80780D4
:105C40000192039AA640324308FA04F8039248EA04
:105C500007020092049A029E4FEA440802FA08F2F0
:105C600091F809E03243069E0EFA08F8029248EADB
:105C700006086D084FEA49094FEA8A0A4FEA4B0BBA
:105C800004F101049FD1194A0799914213D0079951
:105C9000019C039A4C60029C4FF0FF368C60CA60F6
:105CA00008614B61C1F81880009B1E40079BDE61B4
:105CB00009B0BDE8F08F019A079D22F01F04029AF7
:105CC00020F01F0022F01F01039A6C60079D22F054
:105CD0001F0223F01F0328F01F07A9606FF01F06A3
:105CE000EA6028616B61AF61DEE700BF00000B4036
:105CF0004FF6FF72002302808370C37003714371FB
:105D00008371C3710372437283727047094B012818
:105D10009A6822F003029A6007D0022804D19A6898
:105D200042F003029A60704770479A6842F001029D
:105D30009A6070470000024082B000230A4A019333
:105D400002E0B3F5C06F08D2136813F0040F019B93
:105D500003F101030193019BF3D0034B1868C0F3D7
:105D6000800002B0704700BF00000240094B0128CC
:105D7000DA6B22F00302DA6307D0022804D1DA6B6F
:105D800042F00302DA6370477047DA6B42F00102B7
:105D9000DA63704700800D4082B000230A4A019305
:105DA00002E0B3F5C06F08D2D36B13F4005F019B20
:105DB00003F101030193019BF3D0034BD86BC0F3B4
:105DC000403002B0704700BF00800D400B4A10B455
:105DD000D3680B4C23F003031843D060536823F4BB
:105DE000706343EA01215160236823B1054B01210F
:105DF000002219601A6010BC704700BF000002400A
:105E0000880040428C004042014B1860704700BF40
:105E100088014042014B1860704700BF8800404233
:105E200082B000230A4A019302E0B3F5C06F08D2A2
:105E3000136813F0020F019B03F101030193019B0F
:105E4000F3D0034B1868C0F3400002B0704700BFA6
:105E500000000240034AD36823F0F00343EA001035
:105E6000D060704700000240034AD36823F44073B7
:105E70001843D060704700BF000002400B4A10B4C6
:105E800013690B4C23F0030318431061536823F08C
:105E9000F00343EA01115160236823B1054B01214E
:105EA000002219601A6010BC704700BF0000024059
:105EB0008000404284004042014B1860704700BFA0
:105EC00008024042014B1860704700BF800040420A
:105ED00082B000230A4A019302E0B3F5C06F08D2F2
:105EE000136813F0010F019B03F101030193019B60
:105EF000F3D0034B186800F0010002B0704700BFF8
:105F000000000240014B1860704700BF1002404281
:105F1000014B1860704700BF2002404229B9054A72
:105F2000D36923EA0000D0617047024BDA6910435D
:105F3000D861704700000240504AF0B5D368D56878
:105F40004F4C15F0010F4F4B08BF2346D1684E0749
:105F50004A4948BF5668CA6848BFC6F30326C2F319
:105F600001224CBF06FB03361E46012A77D073D3AD
:105F7000022A5FD049F640420260404A404D116912
:105F80001769404917F0010F08BF294614696407D3
:105F900054BF0C465468394A48BFC4F3031412690D
:105FA00048BF04FB0114D70654BF25466508334A91
:105FB000456092691209150740D502F007020132C7
:105FC00001252F4F05FA02F2B7FBF2F22B4DC2600A
:105FD000AD692F0734D505F0070501354FF0010EE7
:105FE000274F0EFA05F5B7FBF5F5244F05617D69DE
:105FF00005F00305012D25D003D3022D0CBF334638
:1060000023461E494969C1F30111012921D02BD32F
:10601000022918BF1346194A5269120A110707D5F7
:1060200002F007020132012101FA02F2B3FBF2F39E
:106030008360F0BD4FF4004202609EE7104AC5E75E
:106040000F4DD2E70B460D494969C1F301110129F2
:10605000DDD149F64043DEE7094A02608DE7CA68B0
:10606000150604D4324687E74FF40043D3E7CA68E5
:10607000C2F30212013226FA02F27DE7000002406A
:1060800000127A0000093D00124A134B90425B6AED
:1060900011D0124A904216D0114A904202D00E4AB4
:1060A0005362704723F47F0343F080630A4A43EA54
:1060B00001435362704723F0FF0343F08073064AA5
:1060C0000B435362704723F47F4343F0007343EA6A
:1060D0000123E4E700000740000002400080074081
:1060E00000000840002310B4022190244FF44072B5
:1060F0000363C36243608461036210BC43628362D2
:106100004163836383640263704700BF70B50446D4
:1061100086B001A80D46FFF70FFF1E4B1E4A9C429A
:10612000926A019832D01D4B9C4204BFC2F30222F6
:10613000D040296882008B08B0FBF3F0860900F09C
:106140003F0000EB8613B2FBF3F35B1ADB01B3FBFA
:10615000F1F3022B17D8AA88EB88298913436A899F
:106160000B436662A0621343E26A9BB21343E3628D
:10617000226BA98922F47F4323F080030B43012083
:10618000236306B070BD002006B070BD02F00702A8
:10619000D040CEE7000003400000024000800340F2
:1061A00000234FF416514FF44072016082818380C6
:1061B000C38003814381704729B94FF6FE73026B98
:1061C000134003637047036B43F00103036370479D
:1061D000836B1AB923EA0101816370471943816314
:1061E000704700BFC36B31EA03030CBF01200020DE
:1061F000704700BF436C19434164704742EAC102D3
:106200004263704783690B4214BF0120002070472E
:106210000D4A0E4B90429B6A0ED00D4A904202D01E
:106220000A4A9362704723F47F4343F00073074A9E
:1062300043EA01239362704723F0FF0343F0807326
:10624000024A0B4393627047000003400000024083
:1062500000800340064BD3F8802342F00202C3F8CB
:106260008023D3F8802322F00202C3F880237047F2
:1062700000000140044A81B2D2F880330B4323EA84
:106280001040C2F88003704700000140000100F197
:10629000804000F58030D0F800318AB2134323EA01
:1062A0001141C0F800117047024B000103445868C7
:1062B000704700BF00010140044A81B2D2F840316A
:1062C0000B4323EA1040C2F8400170470000014030
:1062D000014BD3F84801704700000140014BC3F85F
:1062E0004801704700000140044A81B2D2F84C31A5
:1062F0000B4323EA1040C2F84C01704700000140F4
:10630000014BD3F85001704700000140014BC3F826
:106310005001704700000140000100F1804000F58D
:106320008030D0F8003183F00403C0F800317047AA
:106330001B4A10B4D168D4681A48D16814F0010F10
:10634000194B18BF0346480704D55268C2F303220D
:1063500002FB03331249CA68C2F30122012A13D097
:106360000DD3022A05D049F64042104B10BC1A60EA
:1063700070470E4B4FF400421A6010BC70470B4B35
:10638000094A10BC1A607047CA681209110703D580
:1063900002F007020132D340044A10BC1360704778
:1063A0000000024000093D0000127A003404002081
:1063B000F8B50E4614461D46074604211520FDF784
:1063C00017FC04211620FDF713FC04210E20FDF715
:1063D0000FFC04210F20FDF70BFC04211020FDF71A
:1063E00007FC04211120FDF703FC04211220FDF716
:1063F000FFFB04211320FDF7FBFB304600F00EFFEE
:106400000123B361204600F03DFF2D0300236562A8
:10641000E360A3622FB1012F06D14FF48063636163
:10642000F8BD4FF40063E361F8BD00BFC31E072B46
:1064300000D9704730B5044693B0104D034607AA03
:10644000694601202C60FFF7B3FF01214FF40030B3
:10645000FFF764FD00F0B4FE684600F0C3FE07A835
:1064600000F0E6FE4FF480624FF40061002000F07F
:1064700027FF012000F014FF13B030BD38040020C6
:10648000152853D8DFE800F03A424A322A0F525218
:106490005252525252523A424A322A0F0B27254B3D
:1064A0001B78002B42D0244A136823F4F87343F07E
:1064B00070031360204B214A1946002010701A689F
:1064C00042F002021A600B6A1B4A5B07FBD5906917
:1064D000C0F30B007047174B1B783BB3164A136889
:1064E00023F4F87343F040031360E3E7124A1368A0
:1064F00023F4F87343F050031360DBE70E4A13688C
:1065000023F4F87343F020031360D3E70A4A1368B7
:1065100023F4F87343F030031360CBE7064A1368A3
:1065200023F4F87343F060031360C3E74FF0FF30C8
:10653000704700BFE0BE000800800840380B002014
:10654000362000F0D1BE00BFBFF34F8F0449054B8A
:10655000CA6802F4E0621343CB60BFF34F8FFEE7DB
:1065600000ED00E00400FA0570B5AE4C92B0217861
:10657000042900F0B2800B2911D8DFE801F01214D1
:106580001016102A2E3B7F8D9506A74B1B78002BEB
:1065900040F07D81A548C1790831FEF7D5FB12B0E6
:1065A00070BDFFF7D1FF05F097FCA14D02AC0FCDF8
:1065B0000FC495E8030044F8040B21702B2200213E
:1065C0000DF11D0002F00DF8142102A8FEF7BCFB2E
:1065D000E5E7E26863681A60E1E76378954D64680F
:1065E0009548964A4FF000412B7040F82340C2F87E
:1065F0000011D4E763781E2BD1D801A252F823F002
:10660000856800087B6800086F68000861680008FA
:106610001368000809680008FD670008ED670008B6
:10662000E3670008D9670008C76700089F6500088E
:10663000BF670008B7670008A9670008A1670008DE
:1066400093670008876700087B6700086F6700088A
:10665000636700085B67000851670008336700083C
:10666000236700081D670008176700080567000812
:10667000F7660008ED660008E3660008E578704BF1
:106680002A4618466F4901F0A1FF03466E49A078DB
:10669000202208705A5582E760786C4B042103EB86
:1066A0008000FEF751FB7AE75F4B1D78002D7FF4E9
:1066B00076AF674E674BE2783046012461491C7023
:1066C00001F084FFF3794FF00042332B9CBF9B19FC
:1066D0001D725A4BC3F8002161E76068FEF734FB76
:1066E0005DE7217A207900F057FE58E7A16820790C
:1066F000FDF7BAFC53E72369227B217A207900F069
:106700008BFC4CE700F0ECFF534B1860042152481F
:10671000FEF71AFB43E700F0DFFF40E700F020FA46
:106720003DE7227B60684D4900F08EF94A4B1860C6
:10673000ECE70DF10901227B606800F0CFF9034618
:10674000C1B2013102A88DF80830FEF7FDFA26E744
:10675000A168207900F054F921E72079FDF7F6FFD0
:106760001DE72079FEF7A4F83B4B1860CEE72079AF
:10677000FEF758F8384B1860C8E72079FEF742F862
:10678000354B1860C2E7227B20793449FEF742F985
:1067900005E7E268A168D2B22079FDF709FFFEE6BD
:1067A000207900F0E5FCFAE62189207900F0CAFCA6
:1067B000294B1860AAE72079FCF7A2FEEFE62079C2
:1067C000FCF7A2FEEBE66268A36802A968468DE8C2
:1067D0000C00FDF7EBFDE2E66068C0B2FDF7BAFB26
:1067E000DDE6A1682079FDF7EFFBD8E6E268217AC3
:1067F000207900F0D5FD184B186087E7207900F06C
:1068000033FF154B186081E7217A207900F0E2F917
:10681000C5E6227B217A207900F0C6FD0E4B186078
:1068200074E700BF20120020F00B0020B00B002006
:10683000C4C500086C040020440B002000E100E007
:1068400050060020241200208C060020900B00200F
:10685000540B0020A40B00206012002038120020EE
:10686000237C227B217A207900F09CFD97E6207919
:1068700000F004FF084B186048E7217A207900F007
:1068800093FE8CE6217A207900F090FD87E60021C6
:106890000846FEF759FA82E660120020F8B52F4C40
:1068A0002378DD0703D52E4D2A78002A33D09807A8
:1068B00003D52B4D2A78012A3AD0590703D5284D04
:1068C0002A78022A3FD01A0702D41B060FD4F8BD3B
:1068D000234D2A78032AF8D1224A234BD0681B681B
:1068E000984722490A222378C8602A70EDE7204C95
:1068F0002378002BEBD01F4D1F4E204F204B012241
:106900002A701B68311D381D984700233A682B7088
:1069100023703260F8BD134A1A4B10681B68984701
:106920000A23124A2B70237810601A07CDD5CFE7BF
:106930000C4A154B50681B6898470C490A2223786B
:1069400048602A70C1E7074A104B90681B68984757
:1069500006490A22237888602A70B6E7AC0B00202B
:106960006C040020440B00203C0B0020900B002006
:10697000A40B0020F00B0020B00B0020540B0020D3
:10698000EC0B0020A00B0020A80B0020400B0020E7
:1069900008B50021252000F0EFF90621002000F0C5
:1069A000D1FBBDE808400121252000F0E5B900BF7A
:1069B00010B504460020C4F3074100F0C3FBC4F344
:1069C0000721002000F0BEFBE1B20020BDE810402E
:1069D00000F0B8BB10B50021252000F0CDF905214D
:1069E000002000F0AFFB0021084600F0ABFB04469E
:1069F0000121252000F0C0F9201C18BF012010BD86
:106A000008B58B1EFE2B02D810B10C2800D008BD93
:106A10000B4607220C21002000F0FEFA0121252060
:106A200000F0D8F80121242000F0D4F8012125201D
:106A300000F0A2F90121242000F09EF9014B01226F
:106A40001A7008BDF10B0020234B70B51B78002B8A
:106A50003DD0B0F5003F044639D2002A154636DB5A
:106A60008318B3F5003F0E4621DCFFF791FF0021AC
:106A7000252000F081F90221002000F063FB204670
:106A8000FFF796FF35B300235C1CA4B2F15C002035
:106A900000F058FBAC422346F6DB0121252000F034
:106AA0006BF9FFF797FFC307FBD4204670BDFFF7D4
:106AB0006FFF0021252000F05FF90221002000F087
:106AC00041FB2046C4F50035FFF772FFDBE74FF0CE
:106AD000FF34EAE72C46E0E7F10B0020F8B51F4B46
:106AE0001B78B3B3B0F5003F044632D2002A1646F5
:106AF0002FDB8318B3F5003F0F464FF025004FF012
:106B000000011ADC00F038F90321002000F01AFB24
:106B10002046FFF74DFFFEB100240021084600F09B
:106B200011FB651CADB2B54238552C46F5DB012191
:106B3000252000F021F92846F8BD00F01DF90321B9
:106B4000002000F0FFFA2046C4F50036FFF730FFC2
:106B5000E2E74FF0FF35EEE73546E8E7F10B0020BE
:106B600010B5044C237823B1002000F001FB002372
:106B7000237010BDF10B002001210820FFF7CEB9D2
:106B8000182000F0ABBB00BF0A4A0B4B52F8201094
:106B900010B499420CBF1F220022084C00EB800069
:106BA00054F820300868134320EA03030B6010BC3C
:106BB000704700BFFC0B002000000B40940C00202D
:106BC00025289DBF024B185CC0B21020704700BF43
:106BD0008C0F0020F0B4042922D8DFE801F0234D07
:106BE000769F0300614C624954F8202000EB80033B
:106BF0009B0055685E5825EA0605556015695F5883
:106C00005C4E25EA0745156115695F5825EA0705B9
:106C100015615C58D368042123EA0403D36031541E
:106C2000F0BC7047514A524952F8204000EB8003B3
:106C300022469B0025695E585F1825EA06452561B6
:106C400025695E5825EA06052561E6685D58032436
:106C50003543D56055685B58464E25EA03035360BB
:106C60003B7991685B0004FA03F321EA03030021F6
:106C700093603154F0BC70473C4A3D4952F8204083
:106C800000EB800322469B0025695E5825EA0645F5
:106C9000256125695F585E1825EA07052561676843
:106CA0005D5803243D435560D7685B58314D3B43E5
:106CB000D360337991685B0004FA03F321EA03039C
:106CC000012193602954F0BC7047284C284954F89E
:106CD000202000EB80039B0055685E58032425EAC2
:106CE0000605556015695F585E1845EA0745156148
:106CF00015695F5825EA07051561D5685B582B4370
:106D0000D360337991685B0004FA03F3194C21EAEC
:106D10000303022193602154F0BC7047134C1449C3
:106D200054F8202000EB80039B0055685E58032434
:106D300025EA0605556015695F585E1825EA07457E
:106D4000156117695D583D431561D5685B582B4344
:106D5000D360337991685B0004FA03F3054D21EAAF
:106D6000030393602C54F0BC704700BFFC0B002061
:106D7000940C00208C0F0020252806D8034B0031EE
:106D800053F8203018BF01211960704704C600086D
:106D90002528034614D8A1B10B4A0C4852F82310F9
:106DA0000B4A03EB830352F823200B6881420CBF8C
:106DB0006FF01F004FF0FF30134303400B6070472C
:106DC0007047FFF7E1BE00BFFC0B002000000B4046
:106DD000940C0020252805D8034B53F82030186860
:106DE000C0B270470020704704C60008252832D87A
:106DF000252930D82DE9F041184F002416460D46BC
:106E0000A04607EB80070CE01868C0B2A04040EA3B
:106E100008005FFA80F801342846FFF7B5FE082C19
:106E200016D001212846FFF7B3FF3B68002EEBD0B8
:106E30001B68C4F10700DBB203FA00F040EA080067
:106E40005FFA80F801342846FFF79EFE082CE8D14F
:106E50004046BDE8F0810020704700BF04C600082E
:106E600025282CD825292AD8F0B5154F002457F805
:106E70002160A646012557F820700BE0184204F166
:106E8000010414BF01210021082C39603560C6F8C7
:106E900000E013D0C4F1070105FA04F005FA01F18E
:106EA000002AEBD0194204F1010414BF0121002192
:106EB000082C39603560C6F800E0EBD1F0BD7047B2
:106EC00004C60008000000002DE9F84305460C4602
:106ED000EAB116460027FCF7F1F936184F41252D87
:106EE00010D81B4B003418BF012403EB850503E0C9
:106EF0002B681B689C420DD0FCF70CFAB04271EB7A
:106F00000703F5DBFCF7F0F90020BDE8F883114E2C
:106F10000027E0E7FCF7FEF90BA7D7E90067361872
:106F200080464F4105E0FCF7F5F9B04271EB0703ED
:106F300003DA2B681B689C42F5D0FCF7D5F9C8EB47
:106F40000000BDE8F88300BF0095BA0A0000000009
:106F500004C6000840420F00252870B41BD8012940
:106F60001BD037D3022916D1284B294D53F82010B6
:106F700000EB800292000C695659264B44EA064405
:106F80000C6154590A6922EA04020A611A5CEAB1E6
:106F90001A5C032A1AD070BC70471C4B1C4D53F866
:106FA000201000EB800292000C695659194B24EA1C
:106FB00006440C610C69525922430A611A5C12B1F1
:106FC0001A5C022AE7D103221A54E4E702221A5477
:106FD00070BC70470D4B0E4D53F8201000EB800233
:106FE00092000C6956590B4B24EA06440C61545923
:106FF0000A6922EA04020A611A5C022A02D01A5CB7
:10700000032AC8D100221A54C5E700BFFC0B002098
:10701000940C00208C0F00202DE9F04F85B0002843
:1070200049D0012844D1454F4FF00F0B4FF01208C3
:107030004FF0100A4FF00E0946E040228023ADF8D1
:107040000A20ADF80830013C0F23FF2CADF80230C8
:107050002ED8F31E0C2BADF8004029D8384B022255
:107060009F420CBF4FF480704FF480100121ADF8A7
:107070000E20ADF80660FEF751FF07215846FCF7D9
:10708000B7FD07215046FCF7B3FD07214846FCF742
:10709000AFFD07214046FCF7ABFD384600F030F964
:1070A0000021384600F056F96946384600F032F9BA
:1070B00005B0BDE8F08F224F4FF00A0B4FF00D08DE
:1070C0004FF00B0A4FF00C090D4668461C46164659
:1070D00000F034F90C2DEBD801A353F825F000BFD4
:1070E00015710008B1700008B1700008B170000897
:1070F00021710008B1700008B1700008B17000087B
:107100002F710008B1700008B1700008B17000085C
:107110003B7000080023ADF80A30ADF8083092E764
:1071200000228023ADF80A20ADF808308BE740221A
:107130000023ADF80A20ADF8083084E700000A40CB
:1071400000000440084B094A00280CBF18461046AE
:107150008160C368DA06FCD4C3685B074CBF8068F3
:107160004FF0FF30704700BF0000044000000A40AD
:1071700010B470B903460E4A0324106001465060F3
:1071800013614FF4807053615362146210BCFEF7B8
:10719000C5BE084B002203241A6011465A604FF402
:1071A00080101A615A615A621C6210BCFEF7B6BEAA
:1071B0000000044000000A40704700BF704700BF55
:1071C000074B00221A605A609A601A6199691A6224
:1071D0009A62DA605A61D9695A62DA62704700BF0E
:1071E0000080084030B4C368846802690A4D1C44BA
:1071F0004369016814441C442A6843680C4480694C
:1072000004EB037122F0714301EB405123F47F033F
:107210000B442B6030BC70470080084000230360A3
:1072200043608360C360036143618361704700BF53
:10723000F0B490E81C0011491A444369C56922441E
:107240000E68446A1A440E4B2A44C76833402244ED
:107250004C68866A056A1A4402EB0713078B24F40C
:107260000032448B03EB466302EB45420B604A60FD
:107270000F618C600369F0BC8B627047008008402E
:107280000300FFF10023036043608360C360036178
:10729000436103834383C361036243628362704734
:1072A000064B1B6820B9054A23F0010313607047A1
:1072B000024A43F001031360704700BF008008409A
:1072C00010B4054C236823F480631A4422602061C3
:1072D000A16010BC704700BF00800840014B1860DF
:1072E000704700BF00800140044A00F03F00936BEC
:1072F00023F03F0318439063704700BF00800D40A8
:10730000002303220360436003614361436202621E
:10731000704700BF0A8970B40C884B898D8902EBD5
:107320000422CE89CC881A448B882A444988224476
:107330003344016170BC0260436070470023072141
:107340000222C18042808380438103818381038044
:10735000704700BF0D4A0E4B9042DB6A0ED00D4ABB
:10736000904202D00A4AD362704723F47F4343F02D
:107370000073074A43EA0123D362704723F0FF03F7
:1073800043F08073024A0B43D3627047000004400D
:107390000000024000000A4001EB0121FCF764BE3E
:1073A000FFF792BDFFF75CBDFFF720BD25286ED823
:1073B000A0F10E03052B2DE9F04346D9774F840049
:1073C000DFF8E0C1231857F820E09B005CF8036069
:1073D000DEF800200CEB03083242654605D0704A07
:1073E00012F80090B9F1010F54D0012900F0AC80DF
:1073F0007FD302294CD1DEF8042057F8207022EA0E
:107400000606CEF804603E6922185C590CEB820235
:1074100046EA04463E613C695E5924EA06063E613E
:10742000DEF80C405B5903252343CEF80C3013796A
:10743000DEF808205B0005FA03F322EA0303CEF826
:107440000830574B1954BDE8F0830029B6D1534C8E
:10745000544954F8202000EB80039B0055685E5887
:1074600025EA0605556015695F584D4E25EA074522
:10747000156115695F5825EA070515615C58D368E1
:10748000042123EA0403D3603154BDE8F08370473C
:10749000BDE8F0830029A8D1DEF80440032524EAE2
:1074A0000606CEF80460DEF8106053F80C4046EA99
:1074B0000444CEF81040DEF8106053F80C4026EA81
:1074C0000404CEF81040DEF80C1053F80C300224FF
:1074D0000B43CEF80C3098F80430DEF808105B004F
:1074E00005FA03F321EA0303CEF808301454BDE88B
:1074F000F08357F8207022183C690CEB820224EAD2
:1075000006463E613C695E594FF0030C24EA0604CE
:107510003C61DEF80C705C593C43CEF80C405C5981
:10752000DEF8043023EA0403CEF804301379DEF8E1
:1075300008205B000CFA03F322EA0303CEF80830BC
:10754000174B1954BDE8F083DEF8042057F820707B
:107550001643CEF804603A695E59044422EA0646AE
:107560003E613E690CEB84025C5926EA04063E61EA
:107570005B59DEF80C5003242B43CEF80C30137902
:10758000DEF808205B0004FA03F322EA0303CEF8D6
:107590000830034B1954BDE8F08300BFFC0B0020FA
:1075A0008C0F0020940C0020252812D8F8B52A4E04
:1075B0000346345C012C46D0345C032C0AD80D46BB
:1075C000044600293AD00221FFF7C6FC02223255B8
:1075D000F8BD7047214D224C11F1000E00EB8001E7
:1075E00055F820004FEA810147680A5901EB040C65
:1075F00047EA0207476007690A5918BF4FF0010EB2
:1076000027EA0247076107690A5927EA0207076163
:10761000C5680959134F2943C1609CF8041003251C
:107620008468490005FA01F157F8235024EA010162
:1076300001248160F454C5F800E0F8BDFFF78CFC2C
:107640002A463255F8BD0A1C064918BF012251F8D6
:1076500020301A60F8BD00BF8C0F0020FC0B00200A
:10766000940C00209CC6000825289DBF024B53F8AF
:1076700020301868002070479CC60008F8B5134EEB
:10768000335C042B1ED0124C124954F8202000EB1E
:1076900080039B0055685F584FF0040E25EA0705EC
:1076A000556017695D5827EA0545156115695F58EA
:1076B00025EA070515615958D36823EA0103D36009
:1076C00006F800E0FEF7DCFE8010F8BD8C0F00200D
:1076D000FC0B0020940C002002212120FFF77ABA35
:1076E00008B52120FFF776FBB0FA80F0400908BD0D
:1076F00081F0004102E000BF83F0004330B54FEA63
:1077000041044FEA430594EA050F08BF90EA020FCF
:107710001FBF54EA000C55EA020C7FEA645C7FEA62
:10772000655C00F0E2804FEA5454D4EB5555B8BF85
:107730006D420CDD2C4480EA020281EA030382EAF6
:10774000000083EA010180EA020281EA0303362D88
:1077500088BF30BD11F0004F4FEA01314FF4801C5B
:107760004CEA113102D0404261EB410113F0004F6D
:107770004FEA03334CEA133302D0524263EB430324
:1077800094EA050F00F0A780A4F10104D5F1200EC2
:107790000DDB02FA0EFC22FA05F2801841F100011D
:1077A00003FA0EF2801843FA05F359410EE0A5F1F1
:1077B00020050EF1200E012A03FA0EFC28BF4CF022
:1077C000020C43FA05F3C01851EBE37101F00045D8
:1077D00007D54FF0000EDCF1000C7EEB00006EEBE5
:1077E0000101B1F5801F1BD3B1F5001F0CD349086F
:1077F0005FEA30004FEA3C0C04F101044FEA4452C6
:1078000012F5800F80F09A80BCF1004F08BF5FEA4C
:10781000500C50F1000041EB045141EA050130BD2C
:107820005FEA4C0C404141EB010111F4801FA4F1CF
:107830000104E9D191F0000F04BF01460020B1FA24
:1078400081F308BF2033A3F10B03B3F120020CDA5C
:107850000C3208DD02F1140CC2F10C0201FA0CF03A
:1078600021FA02F10CE002F11402D8BFC2F1200C9F
:1078700001FA02F120FA0CFCDCBF41EA0C01904055
:10788000E41AA2BF01EB0451294330BD6FEA04049E
:107890001F3C1CDA0C340EDC04F11404C4F1200289
:1078A00020FA04F001FA02F340EA030021FA04F39B
:1078B00045EA030130BDC4F10C04C4F1200220FAF2
:1078C00002F001FA04F340EA0300294630BD21FA30
:1078D00004F0294630BD94F0000F83F4801306BFF6
:1078E00081F480110134013D4EE77FEA645C18BFEA
:1078F0007FEA655C29D094EA050F08BF90EA020F81
:1079000005D054EA000C04BF1946104630BD91EA78
:10791000030F1EBF0021002030BD5FEA545C05D17B
:107920004000494128BF41F0004130BD14F58004BA
:107930003CBF01F5801130BD01F0004545F0FE412E
:1079400041F470014FF0000030BD7FEA645C1ABF63
:10795000194610467FEA655C1CBF0B46024650EA9A
:10796000013406BF52EA033591EA030F41F40021C6
:1079700030BD00BF90F0000F04BF0021704730B54C
:107980004FF4806404F132044FF000054FF0000121
:1079900050E700BF90F0000F04BF0021704730B5E2
:1079A0004FF4806404F1320410F0004548BF4042B7
:1079B0004FF000013EE700BF42004FEAE2014FEA0C
:1079C00031014FEA02701FBF12F07F4393F07F4FE7
:1079D00081F06051704792F0000F14BF93F07F4F19
:1079E000704730B54FF4607401F0004521F000415C
:1079F00020E700BF50EA010208BF704730B54FF0E2
:107A000000050AE050EA010208BF704730B511F0E6
:107A1000004502D5404261EB41014FF4806404F11E
:107A200032045FEA915C3FF4DCAE4FF003025FEAA0
:107A3000DC0C18BF03325FEADC0C18BF033202EB28
:107A4000DC02C2F1200300FA03FC20FA02F001FA82
:107A500003FE40EA0E0021FA02F11444C1E600BF21
:107A600070B54FF0FF0C4CF4E06C1CEA11541DBFD4
:107A70001CEA135594EA0C0F95EA0C0F00F0DEF89F
:107A80002C4481EA030621EA4C5123EA4C5350EA84
:107A9000013518BF52EA033541F4801143F48013D5
:107AA00038D0A0FB02CE4FF00005E1FB02E506F066
:107AB0000042E0FB03E54FF00006E1FB03569CF0BB
:107AC000000F18BF4EF0010EA4F1FF04B6F5007FC1
:107AD00064F5407404D25FEA4E0E6D4146EB060633
:107AE00042EAC62141EA55514FEAC52040EA5E50BC
:107AF0004FEACE2EB4F1FD0C88BFBCF5E06F1ED866
:107B0000BEF1004F08BF5FEA500E50F1000041EB9C
:107B1000045170BD06F0004646EA010140EA020049
:107B200081EA0301B4EB5C04C2BFD4EB0C0541EA6B
:107B3000045170BD41F480114FF0000E013C00F380
:107B4000AB8014F1360FDEBF002001F0004170BDA4
:107B5000C4F10004203C35DA0C341BDC04F11404BD
:107B6000C4F1200500FA05F320FA04F001FA05F249
:107B700040EA020001F0004221F0004110EBD37016
:107B800021FA04F642EB06015EEA430E08BF20EA42
:107B9000D37070BDC4F10C04C4F1200500FA04F3E5
:107BA00020FA05F001FA04F240EA020001F0004177
:107BB00010EBD37041F100015EEA430E08BF20EAEA
:107BC000D37070BDC4F1200500FA05F24EEA020E32
:107BD00020FA04F301FA05F243EA020321FA04F061
:107BE00001F0004121FA04F220EA020000EBD37018
:107BF0005EEA430E08BF20EAD37070BD94F0000F18
:107C00000FD101F00046400041EB010111F4801F4B
:107C100008BF013CF7D041EA060195F0000F18BFFC
:107C2000704703F00046520043EB030313F4801F38
:107C300008BF013DF7D043EA0603704794EA0C0FF2
:107C40000CEA135518BF95EA0C0F0CD050EA410608
:107C500018BF52EA4306D1D181EA030101F0004185
:107C60004FF0000070BD50EA410606BF10461946AD
:107C700052EA430619D094EA0C0F02D150EA0136B9
:107C800013D195EA0C0F05D152EA03361CBF1046FA
:107C900019460AD181EA030101F0004141F0FE4199
:107CA00041F470014FF0000070BD41F0FE4141F41D
:107CB000780170BD70B54FF0FF0C4CF4E06C1CEA1D
:107CC00011541DBF1CEA135594EA0C0F95EA0C0FD2
:107CD00000F0A7F8A4EB050481EA030E52EA03358D
:107CE0004FEA013100F088804FEA03334FF08055AE
:107CF00045EA131343EA12634FEA022245EA1115DB
:107D000045EA10654FEA00260EF000419D4208BF8B
:107D1000964244F1FD0404F5407402D25B084FEA38
:107D20003202B61A65EB03055B084FEA32024FF4E4
:107D300080104FF4002CB6EB020E75EB030E22BF41
:107D4000B61A754640EA0C005B084FEA3202B6EB01
:107D5000020E75EB030E22BFB61A754640EA5C00B0
:107D60005B084FEA3202B6EB020E75EB030E22BF40
:107D7000B61A754640EA9C005B084FEA3202B6EB41
:107D8000020E75EB030E22BFB61A754640EADC0000
:107D900055EA060E18D04FEA051545EA16754FEA62
:107DA00006164FEAC30343EA52734FEAC2025FEA80
:107DB0001C1CC0D111F4801F0BD141EA00014FF00F
:107DC00000004FF0004CB6E711F4801F04BF0143E0
:107DD0000020B4F1FD0C88BFBCF5E06F3FF6AFAEFC
:107DE000B5EB030C04BFB6EB020C5FEA500C50F18C
:107DF000000041EB045170BD0EF0004E4EEA11310F
:107E000014EB5C04C2BFD4EB0C0541EA045170BD15
:107E100041F480114FF0000E013C90E645EA060E59
:107E20008DE60CEA135594EA0C0F08BF95EA0C0F87
:107E30003FF43BAF94EA0C0F0AD150EA01347FF4CF
:107E400034AF95EA0C0F7FF425AF104619462CE7A6
:107E500095EA0C0F06D152EA03353FF4FDAE104609
:107E6000194622E750EA410618BF52EA43067FF45A
:107E7000C5AE50EA41047FF40DAF52EA43057FF4EA
:107E8000EBAE12E74FF0FF3C06E000BF4FF0010CF5
:107E900002E000BF4FF0010C4DF804CD4FEA410C59
:107EA0007FEA6C5C4FEA430C18BF7FEA6C5C1BD026
:107EB00001B050EA410C0CBF52EA430C91EA030FA7
:107EC00002BF90EA020F0020704710F1000F91EA04
:107ED000030F58BF994208BF90422CBFD8176FEAD2
:107EE000E37040F0010070474FEA410C7FEA6C5CA0
:107EF00002D150EA013C07D14FEA430C7FEA6C5CA7
:107F0000D6D152EA033CD3D05DF8040B704700BFD2
:107F10008446104662468C461946634600E000BF20
:107F200001B5FFF7B7FF002848BF10F1000F01BDF2
:107F30004DF808EDFFF7F4FF0CBF012000205DF8BD
:107F400008FB00BF4DF808EDFFF7EAFF34BF012042
:107F500000205DF808FB00BF4DF808EDFFF7E0FFDB
:107F600094BF012000205DF808FB00BF4DF808ED2C
:107F7000FFF7CEFF94BF012000205DF808FB00BF93
:107F80004DF808EDFFF7C4FF34BF012000205DF875
:107F900008FB00BF4FEA410212F5001215D211D5BD
:107FA0006FF47873B3EB625212D94FEAC12343F0F6
:107FB000004343EA505311F0004F23FA02F018BF78
:107FC000404270474FF00000704750EA013005D141
:107FD00011F0004008BF6FF0004070474FF0000004
:107FE000704700BF4A0011D212F5001211D20DD510
:107FF0006FF47873B3EB62520ED44FEAC12343F0AF
:10800000004343EA505323FA02F070474FF0000058
:10801000704750EA013002D14FF0FF3070474FF007
:10802000000070474FEA4102B2F1E04324BFB3F5CC
:10803000001CDCF1FE5C0DD901F0004C4FEAC002DF
:108040004CEA5070B2F1004F40EB830008BF20F0C3
:108050000100704711F0804F21D113F13872BCBF7D
:1080600001F00040704741F480114FEA5252C2F1D2
:108070001802C2F1200C10FA0CF320FA02F018BF1B
:1080800040F001004FEAC1234FEAD32303FA0CFC6E
:1080900040EA0C0023FA02F34FEA4303CCE77FEAFD
:1080A000625307D150EA01331EBF4FF0FE4040F447
:1080B0004000704701F0004040F0FE4040F40000F6
:1080C000704700BF80F0004002E000BF81F0004137
:1080D00042001FBF5FEA410392EA030F7FEA226C6E
:1080E0007FEA236C6AD04FEA1262D2EB1363C1BFFE
:1080F000D218414048404140B8BF5B42192B88BF6D
:10810000704710F0004F40F4000020F07F4018BF8F
:10811000404211F0004F41F4000121F07F4118BFAF
:10812000494292EA030F3FD0A2F1010241FA03FC57
:1081300010EB0C00C3F1200301FA03F100F000433F
:1081400002D5494260EB4000B0F5000F13D3B0F107
:10815000807F06D340084FEA310102F10102FE2A76
:1081600051D2B1F1004F40EBC25008BF20F00100E6
:1081700040EA03007047490040EB000010F4000F94
:10818000A2F10102EDD1B0FA80FCACF1080CB2EB27
:108190000C0200FA0CF0AABF00EBC2505242184386
:1081A000BCBFD0401843704792F0000F81F400012B
:1081B00006BF80F400000132013BB5E74FEA4103FE
:1081C0007FEA226C18BF7FEA236C21D092EA030F6A
:1081D00004D092F0000F08BF0846704790EA010FE4
:1081E0001CBF0020704712F07F4F04D1400028BF11
:1081F00040F00040704712F100723CBF00F50000F3
:10820000704700F0004343F0FE4040F40000704728
:108210007FEA226216BF08467FEA236301464202D4
:1082200006BF5FEA412390EA010F40F480007047E7
:108230004FF0000304E000BF10F0004348BF40428D
:108240005FEA000C08BF704743F0964301464FF0C9
:1082500000001CE050EA010208BF70474FF0000325
:108260000AE000BF50EA010208BF704711F0004366
:1082700002D5404261EB41015FEA010C02BF844636
:108280000146002043F0B64308BFA3F18053A3F595
:108290000003BCFA8CF2083AA3EBC25310DB01FADC
:1082A00002FC634400FA02FCC2F12002BCF1004F60
:1082B00020FA02F243EB020008BF20F001007047F1
:1082C00002F1200201FA02FCC2F1200250EA4C0045
:1082D00021FA02F243EB020008BF20EADC7070478B
:1082E0004FF0FF0C1CEAD0521EBF1CEAD15392EA99
:1082F0000C0F93EA0C0F6FD01A4480EA010C400275
:1083000018BF5FEA41211ED04FF0006343EA5010CE
:1083100043EA5111A0FB01310CF00040B1F5000F10
:108320003EBF490041EAD3715B0040EA010062F1BF
:108330007F02FD2A1DD8B3F1004F40EBC25008BFA9
:1083400020F00100704790F0000F0CF0004C08BFC7
:1083500049024CEA502040EA51207F3AC2BFD2F194
:10836000FF0340EAC250704740F400004FF00003A2
:10837000013A5DDC12F1190FDCBF00F000407047DC
:10838000C2F10002410021FA02F1C2F1200200FA1A
:1083900002FC5FEA310040F1000053EA4C0308BFE1
:1083A00020EADC70704792F0000F00F0004C02BF32
:1083B000400010F4000F013AF9D040EA0C0093F0AD
:1083C000000F01F0004C02BF490011F4000F013B07
:1083D000F9D041EA0C018FE70CEAD15392EA0C0F75
:1083E00018BF93EA0C0F0AD030F0004C18BF31F0E0
:1083F000004CD8D180EA010000F00040704790F0B6
:10840000000F17BF90F0004F084691F0000F91F059
:10841000004F14D092EA0C0F01D142020FD193EA1F
:108420000C0F03D14B0218BF084608D180EA0100A7
:1084300000F0004040F0FE4040F40000704740F083
:10844000FE4040F4400070474FF0FF0C1CEAD05251
:108450001EBF1CEAD15392EA0C0F93EA0C0F69D0AD
:10846000A2EB030280EA010C49024FEA402037D018
:108470004FF0805343EA111143EA10130CF000400F
:108480008B4238BF5B0042F17D024FF4000C8B42FF
:1084900024BF5B1A40EA0C00B3EB510F24BFA3EBDF
:1084A000510340EA5C00B3EB910F24BFA3EB9103AF
:1084B00040EA9C00B3EBD10F24BFA3EBD10340EA09
:1084C000DC001B0118BF5FEA1C1CE0D1FD2A3FF64F
:1084D00050AF8B4240EBC25008BF20F00100704704
:1084E0000CF0004C4CEA50207F32C2BFD2F1FF03A7
:1084F00040EAC250704740F400004FF00003013AD8
:1085000037E792F0000F00F0004C02BF400010F47B
:10851000000F013AF9D040EA0C0093F0000F01F08F
:10852000004C02BF490011F4000F013BF9D041EAB1
:108530000C0195E70CEAD15392EA0C0F08D14202E4
:108540007FF47DAF93EA0C0F7FF470AF084676E7B7
:1085500093EA0C0F04D14B023FF44CAF08466EE790
:1085600030F0004C18BF31F0004CCAD130F000425E
:108570007FF45CAF31F000437FF43CAF5FE700BFB6
:108580004FEA4002B2F1FE4F0FD34FF09E03B3EB20
:1085900012620DD94FEA002343F0004310F0004F60
:1085A00023FA02F018BF404270474FF000007047B6
:1085B00012F1610F01D1420205D110F0004008BF55
:1085C0006FF0004070474FF00000704710B5431E39
:1085D0000A44914204D011F8014B03F8014FF8E727
:1085E00010BD03460244934202D003F8011BFAE790
:1085F00070472DE9F04788B0149F002B1E46129952
:10860000B8BF03F1004327F02007B6BF1E46002382
:108610002D23462F1446109DDDF84CA00B7003D07F
:10862000452F03D1013501E0032300E0022307AA0F
:10863000049206AA03928DE828042246334600F0ED
:108640002BFF472F804602D1119BDB0728D5462FF1
:1086500008EB050911D198F80030302B0AD100221F
:10866000002320463146FFF763FC18B9C5F1010528
:10867000CAF80050DAF8003099440022002320465E
:108680003146FFF755FC08B9302202E0CDF81C90C6
:1086900006E0079B994503D9591C07911A70F8E722
:1086A0004046079B159AC8EB0303136008B0BDE86A
:1086B000F087034673B50029B8BF494203F8022B7F
:1086C000B4BF2D222B22092942701ADD0DF10702B9
:1086D00016460A2591FBF5F405FB1411092C01F14E
:1086E000300102F8011D2146F4DC3031541E02F83D
:1086F000011CB4421A460AD214F8012B03F8012BCC
:10870000F7E71A463024214402F8024B5970101A38
:1087100002B070BD2DE9F04F91B00C46DDF86880D5
:1087200016461F46054601F009FE036818460993E0
:1087300000F00CFD00230E93D8F800300A900733A8
:1087400023F0070303F1080294F81890D4F800B05E
:10875000C8F80020D3E90023C4E91223D4F84CA0C0
:10876000D4F848802AF000430B934FF0FF32A74B18
:1087700040460B9903F092FBA0B94FF0FF32A34B98
:1087800040460B99FFF7E8FB60B900220023404602
:108790005146FFF7D7FB10B12D2384F843309C4B93
:1087A0009C4A0AE0424653464046514603F076FB57
:1087B000002800F09281984B984AB9F1470F8CBF7E
:1087C00090469846032323612BF0040323604FF067
:1087D000000A3DE0B9F1670F00F08A81B9F1470F57
:1087E00000F0868123600193636800210DF133025C
:1087F000059002920093424653460691CDF81090A0
:10880000CDF80CE02846FFF7F4FE09F0DF03472B14
:10881000804600F08481B9F1650F0D9900F28D81D9
:1088200001394A4604F150000D91FFF742FF0E9ABC
:1088300082468318012A236100F37C812268D107D4
:1088400000F178819DF8333013B12D2384F8433043
:10885000009733460FAA2146284600F09FF90130C1
:1088600002D14FF0FF3096E123685A0501D4236905
:1088700065E0B9F1650F40F2D580D4E9120100221C
:108880000023FFF755FB78B30123654A314628469C
:10889000B8470130E5D00E9B0D9A9A420BDB236856
:1088A000D80708D423689B0740F111814FF00008D6
:1088B00004F1190906E10A9B099A31462846B8478E
:1088C0000130CED04FF0000804F11A090E9B013B95
:1088D0009845E7DA01234A4631462846B847013031
:1088E000BFD008F10108F1E70D9B002B29DC012323
:1088F0004B4A31462846B8470130B2D00D9B23B9C8
:108900000E9B13B92368D907CCD50A9B099A314627
:108910002846B8470130A4D04FF0000904F11A0AE4
:108920000D9B5B42994509DA0123524631462846A0
:10893000B847013095D009F10109F1E70E9B424695
:10894000A7E00E9AA36D9A42A8BF1A46002A914644
:1089500006DC4FF0000A29EAE97904F11A0B11E06C
:108960001346314642462846B8470130F1D178E7F0
:1089700001235A4631462846B84701303FF471AFCB
:108980000AF1010AA36DC9EB03029245F0DB08EB83
:1089900003090D9A0E9B9A420FDB2368DA070CD469
:1089A0000E9B0D9A9844C9EB08089B1A9845A8BFDE
:1089B0009846B8F1000F08DC0FE00A9B099A31468F
:1089C0002846B8470130EBD14BE743464A4631468B
:1089D0002846B84701303FF444AF4FF0000928EA79
:1089E000E87804F11A0A09E0012352463146284684
:1089F000B84701303FF435AF09F101090D9A0E9BDC
:108A00009B1AC8EB03039945EEDB4BE7FFFFEF7FB3
:108A100038C700083CC7000840C7000844C7000822
:108A20000AC900080E9A012A01DCDB0738D50123A8
:108A3000424631462846B84701303FF412AF0A9B00
:108A4000099A31462846B84701303FF40AAFD4E9C5
:108A5000120100220023FFF76BFA20B14FF000084B
:108A600004F11A090EE00E9B08F10102013B19E026
:108A700001234A4631462846B84701303FF4F1AE5B
:108A800008F101080E9B013B9845F1DB534604F1C8
:108A9000500231462846B84701307FF403AFE0E684
:108AA0004246012331462846B8470130EED1D8E688
:108AB00001234A4631462846B84701303FF4D1AE3B
:108AC00008F10108E3680F9A9B1A9845F0DBE0680B
:108AD0000F9B9842B8BF18465DE062680EA8531C11
